:020000040800F2
:1000000070060020650100088B0100088D010008C2
:1000100000000000000000000000000000000000E0
:100020000000000000000000000000008F01000838
:10003000000000000000000091010008930100088A
:100040009501000895010008950100089501000838
:100050009501000895010008950100089501000828
:100060009501000895010008950100089501000818
:10007000950100089501000895010008791600080F
:100080009501000800000000000000009501000834
:1000900000000000950100085516000895010008B1
:1000A0000000000095010008950100089501000876
:1000B0009501000800000000950100089501000866
:1000C00000F002F800F03EF80CA030C80838241800
:1000D0002D18A246671EAB4654465D46AC4201D180
:1000E00000F030F87E460F3E0FCCB6460126334274
:1000F00000D0FB1AA246AB46334318471C3300001E
:100100003C330000103A02D378C878C1FAD85207BD
:1001100001D330C830C101D504680C6070470000BD
:100120000023002400250026103A01D378C1FBD813
:10013000520700D330C100D50B6070471FB51FBDFB
:1001400010B510BD01F080F81146FFF7F7FF01F080
:1001500089FD01F098F803B4FFF7F2FF03BC01F04A
:10016000C9F800000F4880F308880F480168090E9D
:100170000E4A914205D10E480E4901600E480F49C2
:1001800001600F4880470F480047FEE7FEE7FEE7A3
:10019000FEE7FEE7FEE700000B480C490C4A0D4B5A
:1001A0007047000070060020040000001F000000DF
:1001B0001810024001000000000001400000000093
:1001C000E1150008C1000008700000207006002042
:1001D0007002002070020020002203098B422CD301
:1001E000030A8B4211D300239C464EE003460B4387
:1001F0003CD4002243088B4231D303098B421CD3E9
:10020000030A8B4201D394463FE0C3098B4201D3DA
:10021000CB01C01A524183098B4201D38B01C01A12
:10022000524143098B4201D34B01C01A5241030989
:100230008B4201D30B01C01A5241C3088B4201D338
:10024000CB00C01A524183088B4201D38B00C01AE5
:10025000524143088B4201D34B00C01A5241411A0C
:1002600000D201465241104670475DE0CA0F00D0EF
:100270004942031000D34042534000229C460309E8
:100280008B422DD3030A8B4212D3FC22890112BA6E
:10029000030A8B420CD3890192118B4208D3890146
:1002A00092118B4204D389013AD0921100E089095E
:1002B000C3098B4201D3CB01C01A524183098B423F
:1002C00001D38B01C01A524143098B4201D34B0128
:1002D000C01A524103098B4201D30B01C01A52418B
:1002E000C3088B4201D3CB00C01A524183088B4212
:1002F00001D38B00C01A5241D9D243088B4201D39B
:100300004B00C01A5241411A00D201466346524185
:100310005B10104601D34042002B00D54942704784
:1003200063465B1000D3404201B50020C046C04682
:1003300002BD704770477047F0B50C46871A9C4164
:100340000D46861A9D4103D2C01BA141D2196341BB
:100350000D0D1F0DC94EEC1BAE435CD07F057F0D0C
:100360000026002F51D02D05AC46A943DD02012304
:10037000ED0A1B051D4320231B1B24D41746E74011
:10038000381871412F46E740CC199D402818314656
:1003900061410C0D27D161449A4013D50023401CC4
:1003A000594152000ED14008400001224B00520535
:1003B000D34207D305204007C14201D5B04900E030
:1003C000B0493046F0BD6B00002A00D001229A18D7
:1003D0001F23203C1B1B01D5002302E0E540281809
:1003E00071410C0DD7D0012424050919C407CD078C
:1003F00040084908E40F28436144002CD5D000246C
:10040000401C61419A40D0D1CDE76A05520DD9D147
:10041000C90FC907D5E79C4D4E00002801D0012423
:1004200000E0002434195F00002A01D0012600E01A
:100430000026BE19954FAC420CD8AE420AD8B44241
:1004400006D001256D05EC42BCD010461946F0BD22
:100450009942FCD000203946F0BDF0B51FB40C46DF
:100460000F46811A9F412546861A9D4106D20125D5
:10047000ED076F40401ABC4152187B41210D1E0D03
:100480008D1BAC467D4D8D437ED075056D0D7CD0AA
:100490000D05AE46AC431B031B0B794D52429D41EB
:1004A000202366469B1B14D31746F74038180026B6
:1004B0000090744160462F460741E41900989D4022
:1004C0002818664116D4714671189A4025D5012323
:1004D00020E093182A466A415200002B00D0521C9B
:1004E0001E23203E9B1B002B61DD3541EE17281893
:1004F0006641E8D5001876415B1C9A4000D3401C49
:100500004B05F3181524E34010D3002B52D071464D
:100510007118D30FC01802D3491C05B0F0BD0123D8
:10052000DB079A42F9D140084000F6E70122520564
:10053000B21801D1002853D00123CC0ADB02994321
:10054000891E002A08D1020C03D0020C00041039C5
:1005500002E00246002020390023550B05D112028B
:100560000823550B01D152010D23550C01D1120165
:100570001B1DD50C01D192009B1C150D01D1520001
:100580005B1C2025EE1A01E02CE022E00546F54038
:1005900015439840CA1AE10769181305C918002ABB
:1005A000BBDA032040070818C10FC9070FE07146E6
:1005B0006118B2E7F10740080843711071444A001E
:1005C0000CD001235B059A42A7D2C90FC9070020AE
:1005D000A3E74905490D26D1002001E00028F4D108
:1005E00000219AE7284D6600002801D0012100E093
:1005F000002171185F00002A01D0012600E00026CA
:10060000BE19224FA94210D8AE420ED8B14208D02E
:1006100001256D05E94206D01946A8024140104661
:100620007BE79C4201D0214677E70020394674E7FA
:1006300010B50C465C4005D50124E4076340FFF784
:100640000CFF10BDFFF778FE10BD30B40C465C40C7
:1006500004D50124E407634030BC6DE630BCFCE601
:1006600070B50124E40761400D465D4002D4FFF7F8
:1006700063FE70BD6340FFF7F0FE70BDFF07000032
:100680000000F0FF0000F07F0000E0FF0000F87FB6
:10069000F0B5F94D0C091E092C402E402F468BB0A9
:1006A000A7437DD0B543FCD0002E7AD0002CFCD0DF
:1006B0000D465D40ED0F2543AC1BFF25AD046419CD
:1006C0000894C502440DC9022143500DDC020443C5
:1006D0000120C00701430443D2020191200C110CF8
:1006E00000958C46010423468B430A916146090418
:1006F000E24D8A430991010A7D44491980390978FC
:1007000005464D4301266D18F605751B6943C90C56
:10071000640B891C4C436418B5012C1B250C2E045A
:10072000B4434C434D43210C691889090591009D40
:10073000E90701D00121C90704912C4601996708F6
:10074000CD072F434C08059DE10B4D432D0C294649
:100750006646754302950D4645432E46029D7D1B18
:10076000B44100950D465D4301942C0C2F040D46B9
:100770005543AE462D0C3D43029503947546049CAB
:100780002D04641B049406D2029C039D641C002665
:1007900075410395029401AC70CC009F7D1B01E074
:1007A0003EE162E1B4410904009507910194059985
:1007B000A4086143090C0C464443650BE7040C464E
:1007C00066467443A646640B3C4303950294744604
:1007D000049DE4042C1B049406D2029C039D641C1B
:1007E000002675410395029401AC70CC009F7D1BDF
:1007F000B44101940C465C430095650FE7000C463C
:100800005443A646640F3C43039502947446049DEA
:10081000E4002C1B049406D2029C039D641C002659
:1008200075410395029401AC70CC009F7D1BB441CF
:10083000AE09AF06049DC900AD092F43049DA4066F
:10084000AD060495079D344369180791059DE10B9A
:100850004D432D0C29466646754302950D4645438A
:100860002E46029D7D1BB44100950D465D430194CB
:100870002C0C2F040D465543AE462D0C3D430295DE
:1008800003947546049C2D04641B049406D2029CB8
:10089000039D641C002675410395029401AC70CC45
:1008A000009F7D1BB44101948C050694079C890A26
:1008B000611800950791019C0599A4086143090CF2
:1008C0000D464543680BEF040D46644665436C0BCB
:1008D0003C43049FED047D1BAC4602D20025641C02
:1008E0006841009E019D371B85410846584301958C
:1008F0000C46460FC5005443600F28436546E4008C
:100900002C1B02D20025401C6E41019D3F1AB541AF
:100910002846BD09800628438446A009BF064E022A
:100920000699A40676180743079D002068410A9996
:10093000079019430020099B00906046FF1913435C
:100940004041E20F64003A43A4460446D71A8C4162
:10095000A04203D90120009020463A46C70F9418C0
:1009600040416246D20F2243644664000494009CD6
:10097000BE466400D71AA446044602978C417746C7
:10098000002F01D1A04204D96046401C8446029A3F
:100990002046C40FA64694184041049A0546D20F3B
:1009A000224364466400D31A8D417146002901D167
:1009B000A84202D928461A46641C10430122002886
:1009C00000D0164361020020079B891904465C4150
:1009D0000223002C02DB491813466441089DCE0A0D
:1009E0002D145D194B056705E10A2C050D190899B1
:1009F0003E43C9076940002B08D0934006D300222C
:100A0000761C5141002B01D1760876001C4A002D3E
:100A100043DB154241D0AA433FD030460BB0F0BD76
:100A200006180D464D41174C7642AC411AD3951825
:100A30001C465C41134A6D42A24113D30122520568
:100A40004C00D4420AD15C00D4420BD04B4002D5BA
:100A500092021143E2E749004908DFE75940C90F14
:100A6000C90718E000200849D8E7054801420DD120
:100A70000342F7D0F2E700000000FF07CA2B000096
:100A80000000F07F0000E0FF0000F87F11485940AF
:100A90000143C01241400020C0E70123089A9B0691
:100AA0009A4205DC032252078918C90FC907B5E726
:100AB000052252078918074A1143D2125140ADE767
:100AC00070B515461C4602460B4628462146FFF7E0
:100AD000DFFD70BDFFFFFF7F30B50346CA02400D4A
:100AE0001043164D164C0A1502D02043002A06DB8F
:100AF000AA1A002A12DDD040FF2A0BDC30BD5205B5
:100B0000520D01D140004008AA1A07D4D0404042FB
:100B1000FF2A01DD002030BD0028FCDD4A00002B4B
:100B200001D0012000E00020101801225205D0421F
:100B3000F0D8C817C043604030BD00001E0400005C
:100B4000000000801F22030C02D10F22000402D0FB
:100B5000030E03D004E00020014670470002083A6B
:100B6000030F01D10001121F830F01D18000921EDB
:100B7000002801DB4000521E120551184205C01228
:100B8000411810467047C10FC90700D040420122EA
:100B900092071143D6E701218907D3E7F0B58B4CC3
:100BA0000F09254689B0BD437BD01D092646AE43BB
:100BB000FAD00E465E402740F60F3E43254071D0E6
:100BC00024012142FBD0FF24AD19A4042D1B039561
:100BD00001252D05DB02DB0AC9022B43C90A294383
:100BE0001E010901040F130F050121431701880B92
:100BF000820391432D098C46A90B1E438A0395431A
:100C0000B30B9A0396433F09BA0B9403A74302968A
:100C10002E467E430497B6464E19D7190C460196C8
:100C2000544305977E43371B7646BF1B3601B646B5
:100C3000BE0B361900967646BC043719009C01D3CA
:100C4000641C00946400002F01D001263443029EEE
:100C5000049F754366467E430496760034196E0001
:100C600034190094029C019E1C196643751BAE4604
:100C7000069465464519059C05956C435943754690
:100C80000891691A0191049E01465143A41B0491E5
:100C9000611A009C0791E10605D061090122114308
:100CA00002E072E06EE06109089D00272C0A2D0623
:100CB0006918049D7C412A0A2D066918019D62412C
:100CC000AC0DAD026D185441079A910D9202551961
:100CD0006141029A644658435443069B059A5A431D
:100CE000121A131B9A0E9B015B187A41010B000527
:100CF000C3185141220A200644195A419A4200D28F
:100D0000491C01204002814203D315230226F643E9
:100D100002E014230326F6432020C51AA9401746F3
:100D2000AF40DA400A4320460399D84009147318AB
:100D300019055118039A3843D2075140AC4009D0E5
:100D40000122944006D30022401C5141002C01D1C5
:100D5000400840001E4A934212D301220398920693
:100D6000904207DB0520400709181A480143C012CA
:100D7000414004E0032040070818C10FC9070020C4
:100D800009B0F0BD0020F107FAE705180C464C4108
:100D900011486D42A04115D394181A465A410E4885
:100DA000644290410ED301204A004005824209D39B
:100DB0005A00824206D35940C90F084AC907002089
:100DC0001143DDE700200649DAE700000000FF07D5
:100DD000FE070000FFFFFF7F0000E0FF0000F07F44
:100DE0000000F87FF0B5FF252D04C609C209FF27D2
:100DF00004462E400137CB093E4348402A402B4051
:100E00000746002A6BD0002B69D0AA4267D0AB42BC
:100E100065D0002800DA32460125ED0529432C4330
:100E200009022002090AD21A4B0C7F24E31A434C10
:100E3000000A7C44E35C7D242404121914145B0032
:100E4000A218884201D3521C00E0400049420C46DF
:100E50005C4324115C43DB016415E318040A5C4322
:100E6000C502200D0C4644436419250A5D43230343
:100E7000EC0C0D46654300030019EB184C42A342ED
:100E800001D35B18401CD4052018002B07D05B0051
:100E9000C91804D3401C002901D1400840003F215B
:100EA00089048A4209D3002A08DC1106090F04D0FC
:100EB000032149074018C00FC007F0BD01224100BF
:100EC000120689187F2252069142F6D2052149075F
:100ED000C84201D59010F0BDFF20C005F0BD002F25
:100EE00000DA32461648AA4207D2AB4205D21902AE
:100EF000090E17D0F80FC007F0BDFF2563002D06BF
:100F0000AB42F9D84900A942F6D8AB4201D1A94277
:100F1000F2D0A94201D1002101E061004908D005C9
:100F20000843F0BD1102090EFBD0FF200243D0059B
:100F3000F0BD0A460146104654E7000010250000A7
:100F40000000C07F10B501469E240002CA15A30709
:100F5000002A02D01843002A04DBA21A002A0CDD62
:100F6000D04010BD1206120E01D140004008A21A56
:100F700003D4D04040420028F3DDFF22480012068F
:100F8000904201D9002010BDC817C043584010BD81
:100F90001F22030C02D10F2200041CD0030E01D12A
:100FA0000002083A030F01D10001121F830F01D183
:100FB0008000921E002801DB4000521ED20551180D
:100FC000021251181922904004D3491C002801D163
:100FD0004908490008467047C10FC90700D0404280
:100FE000012292071143D3E701218907D0E710B509
:100FF00000F080F8006810BD10B5044600F07AF8E3
:10100000046010BDF8B5224C4E00069DA6420AD8D9
:10101000A64201D1002806D15E00A64203D8A6420E
:101020000AD1002A08D00D24240425422CD02946B8
:10103000002000F063F8F8BD0C461C430CD4994224
:1010400002D0EFF30080F8BD904202D0EFF30080B1
:10105000F8BDEFF30080F8BD09242407E5008B42BA
:1010600006D0EFF30080A043591A06D2284304E0CB
:10107000101A05D3EFF30080A04380F30088F8BD79
:10108000EFF30080A043F1E7009500F04FF8F8BDC2
:101090000000E0FF70B505464800440D124B0020EB
:1010A000002C0AD0634008D09A4206DA6642B24267
:1010B00003DD12054019514170BD002C08D0002BF2
:1010C00009D0C90FC907002AF6DB084A114370BDD1
:1010D000C90FC90770BD28460A03104302D000207B
:1010E000034970BD284670BDFF0700000000F07F77
:1010F0000000F87F0048704710000020C80212D599
:101100004803400F002804D0C803C0430121884091
:101110007047EFF30080000100090321090708432D
:1011200080F30088704700207047000010B5002051
:101130000249029A00F0AFF810BD00000000F87FED
:10114000F0B53D4B02460C461C400020002C63D0FD
:101150003A4D8B4366D000296BDB0B0D1D05A9436F
:1011600001252D0529430124FD33E34001D39218C5
:101170004941FF3381339C468B02940D0121234367
:1011800089074C42920200271B198C105D1A04D467
:101190002D1B02D42B466500491992185B41640847
:1011A000F4D15C1A08D40125ED07EE1755197441E6
:1011B00002D42A462346491C94185B410122920717
:1011C0001D46E61B8D4106D4B61A854103D42B4635
:1011D000550034467F1924195B415208802AEFD10B
:1011E000234300D0022338460A22D04001D30122F3
:1011F00013438A0510436246890A12058918002B99
:1012000009D00122D34002D30022401C5141002BBF
:1012100001D140084000F0BD0B03134307D0C90FB4
:10122000C907F0BD0803104303D1002901DB1046B4
:10123000F0BD00202946F0BD0000F07F0000F87FDF
:1012400000487047100000207546FFF7F9FFAE46D2
:10125000050069465346C008C000854618B020B551
:10126000FEF79AFF60BC00274908B6460026C0C5B5
:10127000C0C5C0C5C0C5C0C5C0C5C0C5C0C5403D4E
:1012800049008D46704710B50446C046C04620460A
:10129000FEF761FF10BD10B50C461107090F0929B3
:1012A00004D00A290AD008290CD104E011460820EC
:1012B000FFF724FF06E0510606D501E0510601D5EF
:1012C0000120C007214610BDD10607D5010109093B
:1012D000CC084907000E0006044309E0410F200234
:1012E0004907000A0143200E00061D22D141014397
:1012F0000846E7E701491820ABBEFEE726000200DA
:10130000704700B50346802000F044F8184600F00E
:1013100041F800BD00BF0D4880690121C9030840A4
:101320000028F8D109484068094908400749486041
:1013300008464068074908430449486000BF03481D
:101340008069402108400028F9D1704700540040CE
:101350000078FFFF7820FF0000BF0D488069C007BC
:10136000C00F0028F9D00A484068012189030843CA
:101370000749486000BF06488069202108400028CE
:10138000F9D00348C06908430149C86170470000AB
:101390000054004000BF08498969C907C90F0029E6
:1013A000F9D00549886200BF03498969402211408C
:1013B0000029F9D1704700000054004070B506467E
:1013C0000C46FFF7A7FF4020FFF7E4FF00231DE0D6
:1013D0003046203881004018C0180F490D5C002CA1
:1013E00004D0E943C8B2FFF7D5FF02E02846FFF773
:1013F000D1FF042B08D1002C03D0FF20FFF7CAFF38
:1014000002E00020FFF7C6FF581CC3B2052BDFDB4C
:10141000FFF7A2FF70BD0000662E000830B5002463
:1014200017E0FFF777FF2020FFF76BFF0020FFF7A3
:1014300068FF4020FFF7AEFF002504E00020FFF723
:10144000A9FF681CC5B2802DF8DBFFF785FF601C83
:10145000C4B2082CE5DB30BD30B504460D46FFF7BD
:1014600059FF0F2C06DD2111102211430846FFF70A
:1014700048FF02E01020FFF744FF2007000FFFF7AE
:1014800040FFB02129430846FFF73BFFFFF764FF09
:1014900030BD000010B5FFF73DFFAE20FFF731FF74
:1014A000002405E00549085DFFF72BFF601CC4B26E
:1014B000122CF7D9FFF750FF10BD0000542E000882
:1014C000F3B585B006460124002700200190002EC8
:1014D00001DB354602E075420120019000BF0A2D74
:1014E0000ED30A212846FEF777FE0F4638463030E5
:1014F00002A908550A212846FEF76EFE054604E0BB
:101500002846303002A908550025601CC4B2002DC1
:10151000E5D10198002803D02D2002A9085501E04B
:10152000601EC4B200BF02A9085D0699FFF746FF1E
:10153000601EC4B2002CF6D107B0F0BDF3B584B084
:1015400006460124002700200090002E01DB3546CE
:1015500002E075420120009000BF102D0ED32F072E
:101560003F0F0A2F04DA3846303001A9085503E04E
:101570003846373001A908552D090BE00A2D04D251
:101580002846303001A9085503E02846373001A924
:1015900008550025601CC4B2002DDED1009800283B
:1015A00003D02D2001A9085501E0601EC4B200BF80
:1015B00001A9085D0599FFF701FF601EC4B2002C68
:1015C000F6D106B0F0BD30B504460D4604E02078F3
:1015D0002946FFF7F3FE641C20780028F7D130BDC0
:1015E0001948006801210843174908600846406807
:1015F00016490840144948600846006814490840E4
:1016000011490860084600680121890488430E4991
:101610000860084640683F21090488430A49486039
:101620000846C06A00090001C8620846006BFF2135
:10163000D4318843044908630846406B40084000A1
:101640004863002088607047001002400CB8FF0813
:10165000FFFFF6FE00B507480069C007C00F00286D
:1016600007D000F00DF80348006940084000014928
:10167000086100BD004801400120800700697047F3
:1016800010480088002804D00E480088401E0D49EC
:1016900008800D48008800280ED1FF20F5300A4947
:1016A00008800A48406901214840084948610848C3
:1016B0000088401C0649088003480088401E0249F3
:1016C0000880704704000020060000200004004845
:1016D000080000204900CA020243100000D0042084
:1016E0004A0D01D001221043044A490D914201D113
:1016F00002210843012800D105207047FF070000A0
:1017000010B5002819DB1A4A03231B02D2188308DC
:101710009B00D2588307DC0EFF23A3409A438B071C
:101720001B0E8407E40EA3401A43114B032424022A
:101730001B198408A4001A5118E00E4A03071B0F56
:10174000083B9B089B00D2588307DC0EFF23A34075
:101750009A438B071B0E8407E40EA3401A43054BE4
:101760000407240F083CA408A4001A5110BD00006F
:1017700000E100E01CED00E0F8B504464F1EC80093
:101780000838211815461E46086849683A46062357
:101790009A4310D02A463346FFF700FA3A46D20061
:1017A000083AA3181A687F1E5B68FEF741FF0622FD
:1017B0003B469343EED1022F23D0042F11D0062FA6
:1017C0002FD12A463346FFF7E9F9E36AA26AFEF70A
:1017D0002FFF2A463346FFF7E1F9636A226AFEF7D4
:1017E00027FF2A463346FFF7D9F9E369A269FEF7D6
:1017F0001FFF2A463346FFF7D1F963692269FEF7D6
:1018000017FF2A463346FFF7C9F9E368A268FEF7D7
:101810000FFF2A463346FFF7C1F963682268FEF7D7
:1018200007FFF8BD002210B5134610460149FEF728
:101830002FFF10BD0000F03F10B5FEF7F9FE10BD00
:10184000002210B5134610461146FEF721FF10BDC9
:1018500010B50721024A00200907FFF71BFC10BD45
:1018600001030000034A10B500201107FFF712FC26
:1018700010BD000001FDFFFF10B5B621E02001F012
:1018800001FA052000F06AF8D02001F039F910BD06
:1018900010B586B004460320A075D12001F030F9C0
:1018A0002921085516226946AA2000F0D9FF68466A
:1018B0000078010268464078014308B220806846FB
:1018C000807801026846C078014308B260806846AB
:1018D0000079010268464079014308B2A080684659
:1018E000807901026846C0790143E1806846007A48
:1018F00001026846407A014321816846807A0102EC
:101900006846C07A014361816846007B01026846EF
:10191000407B014308B2A0816846807B0102684693
:10192000C07B014308B2E0816846007C0102684642
:10193000407C014308B220826846807C01026846F0
:10194000C07C014308B260826846007D000269469F
:10195000497D084300B2A08206B010BD034908804B
:1019600000BF024909880029FBD17047040000200C
:10197000F0B589B004462E21F42001F083F905204A
:10198000FFF7ECFFF62001F011F82062A07D800146
:101990003430C1B2F42001F075F9A07D012804D0E3
:1019A000022806D003280CD107E00A20FFF7D6FF53
:1019B0000BE00F20FFF7D2FF07E01A20FFF7CEFF62
:1019C00003E00520FFF7CAFF00BF00BF032202A902
:1019D000F62000F045FF6846007A01046846407A28
:1019E000000208436946897A0843A17D0822511AFA
:1019F000084160626189206A401A21894843C51301
:101A00001422A25E51191222A25ED002FEF7EEFB52
:101A10000746E9190891089908310811FFF7DCFA1F
:101A200031490190FFF7DEF9E0617D20400108991E
:101A3000081A07900E21615E079840430013414346
:101A4000CD120221615E07984143CF12E81906903A
:101A50000020205E810006980818A17D8840801C27
:101A6000801005900421615E079841434D130C21BD
:101A7000615E07984043001341430F14E819801C2E
:101A800080100690E0880122D20306998918484305
:101A9000C00B0490616A0598081AA27D1349114190
:101AA000484303900121C9070398884206D203994D
:101AB00048000499FEF790FB064604E00499039859
:101AC000FEF78AFB4600301240430546084868434B
:101AD0000514084870430714E81907494018001115
:101AE0008019A06109B0F0BD0000204150C3000082
:101AF000DE0B000043E3FFFFCF0E000010B552489D
:101B000080690121890408434F4988614F48504941
:101B100088620120C86208460068912108434C4948
:101B200008600846C068012108434949C86016207A
:101B3000002809DB00BF00BFC206D20E0121914080
:101B4000444A116000BF00BF00BF05211620FFF707
:101B5000D7FD3D4840690121890408433A4948615D
:101B60003D480068012108433B4908603648406908
:101B70000903084334494861384800680A2108438A
:101B800036490860084680680F2108433349886059
:101B90000846406803210843304948600846006A07
:101BA000112108432D4908622748C06901214905D0
:101BB00008432549C8612A4800692949086108463F
:101BC0000069092108432649086108460069032184
:101BD00009020843224908610846006901210904F5
:101BE00008431F49086108460069032109050843A5
:101BF0001B490861084640680321C9028843184907
:101C000048600846006801210843154908600E48ED
:101C100040690121490408430B4948610920C00675
:101C20000068042108430921C906086008460068C5
:101C30008008800008600846C06802210843092126
:101C4000C906C86010BD0000001002403F1F000020
:101C50000048014000E100E0000400480014004892
:101C60000054004092B0FFF749FF6420FFF776FE72
:101C7000FFF710FCFFF7D2FB00210A20FFF7ECFB77
:101C8000012157A0FFF79FFC01210846FFF7E4FB65
:101C9000002157A0FFF797FCFFF7EEFD0446002157
:101CA000FFF74CFC01214020FFF7D6FB002152A09A
:101CB000FFF789FC10A948790021FFF73FFC07A82E
:101CC000FFF7E6FD8AE04E4800880028FAD00021A0
:101CD0004B48018007A8FFF74BFE0D98FEF753FF16
:101CE00004460022474BFEF7D3FC0646464A474BC4
:101CF00000F0B8F80022464B01910090FEF7B0FCCE
:101D00000022444B03910290FEF748FF0591049096
:101D1000FEF7E2FE069003210120FFF79DFB002164
:101D20003DA0FFF750FC0E98FFF70CF90446002188
:101D3000FFF7C6FB00213AA0FFF745FC39490E9892
:101D400001F030F80646FFF7FDF805460A21FEF7D8
:101D50004DFA0C4600212046FFF7B2FB002132A0CD
:101D6000FFF731FC04210120FFF776FB002130A0B2
:101D7000FFF729FC00210D98FFF7A2FB00212EA000
:101D8000FFF721FC05210120FFF766FB002128A0B9
:101D9000FFF719FC0D98FEF7F6FE0646284A294B78
:101DA000FEF7FCFE0446FEF797FE00210590FFF7C4
:101DB00087FB002124A0FFF706FC07210120FFF785
:101DC0004BFB002123A0FFF7FEFB00210698FFF745
:101DD00077FB002121A0FFF7F6FB00BF73E70000AF
:101DE000205445535420424D5031383000000000FB
:101DF00049443A20307800005265763A2030780025
:101E000008000020D0BCF840EBE2361AC05BC83FA7
:101E10000000F03F40A5E54054656D702E3A20006B
:101E20002E00000000002041204320200000000080
:101E3000507265732E3A20002050612E2020200021
:101E4000B1779859F8B87E3F206D6D2E68672E20C7
:101E500020200000416C743A20000000206D2020FA
:101E600020000000F0B51FB496B084460C46024630
:101E7000199D1898039049006800630049084008BC
:101E80000193002A01D0012600E000269E19FE4B96
:101E9000F6185B109E422BD36E00039F0296002F14
:101EA00000D00127F719F84EF84BBE199E421FD3F8
:101EB000039E0346F64F334309D03B469C4201D173
:101EC000002A04D0019B002A05D0012604E000204E
:101ED00039461BB0F0BD00269E19EE4B9E4207D836
:101EE000039F029E002F00D00127F6199E4207D9BA
:101EF0002B4660462146189AFFF79EFC1BB0F0BDAA
:101F00000023002C29DAE44EB04226DAE34EB04238
:101F100001DB022321E0DE4EB0421EDBE04E070D66
:101F2000BE19142E09DD3427BF1B039EFE40019607
:101F3000BE40039FBE420BD00FE0039F002F0CD189
:101F40001427BF1B0646FE400196BE40864204D1C0
:101F5000019BDE07F60F02239B1B0E46164318D18A
:101F6000002D16DA002C03D0022B01D0012B06D055
:101F70000220FFF741F8FFF755FC1BB0F0BD02202F
:101F8000FFF73AF8FFF74EFC0122D20751401BB091
:101F9000F0BD039E002E61D1BF4EB04220D1C1489A
:101FA000844201D1002A08D0B948814209DB002DC2
:101FB00010DB189829461BB0F0BD0020B4491BB0B7
:101FC000F0BD002D06DA01222946D20718985140AB
:101FD0001BB0F0BDB4497944086849681BB0F0BD36
:101FE000AB4FB84225D1002D1FDA002904D0B142F1
:101FF00012D1002A09D018E0002A72D1A649E20FB6
:102000000020D20711431BB0F0BD0020E20F0146B3
:10201000D20711431BB0F0BDB14206DA23460020BF
:102020003946FEF735FB1BB0F0BD104621461BB00C
:10203000F0BDB14212DA0126B607B54203D12346FC
:1020400010461946FEE3994EB54207D1261E05DB20
:102050001046314600F0F2FD1BB0F0BD67007F086E
:102060001646002A40D100290AD08B4A914229D134
:10207000002C0EDD002D1CDB002011461BB0F0BD36
:10208000022B16D0002C14D0012B12D1002C14DB03
:102090000FE0002C28DA002D09DB012B03D00020F3
:1020A0007D491BB0F0BD002081491BB0F0BD012B64
:1020B00003D0002001461BB0F0BD00200121C9075C
:1020C0001BB0F0BD724A91420ED1002C01DA002BF8
:1020D00017D0022B06D00020C043FEF754FD1BB0E2
:1020E000F0BD90E20120F8E7E217521C94461A4333
:1020F00007D000220892664C62465B1E1A4307D046
:1021000009E00120FEF778FFFFF79AFB1BB0F0BD56
:102110000022644C0892674A90427DDD664B674A14
:1021200098421FDD914202DC002D05DB4DE058484E
:10213000814217DB002D48DD0220FEF75DFFFFF72F
:1021400087FB05460E460022534B21460898FEF7B2
:1021500025FD084671004908C00FC0070143284605
:102160001BB0F0BD914215DA002D2EDA0220FEF7E9
:1021700043FFFFF76DFB05460E460022464B214606
:102180000898FEF70BFD72005208C80FC007024303
:10219000114617E03E4B994223DD002D15DD02204C
:1021A000FEF72AFFFFF754FB05460E4600223A4B86
:1021B00021460898FEF7F2FC084671004908C00F56
:1021C000C007014328461BB0F0BD0220FEF714FFF4
:1021D000FFF748FB49004908E20FD20711431BB043
:1021E000F0BD002230463946FEF72FFA012205469F
:1021F0000E46D243FEF74EFF314A324BFEF730FA1D
:102200002A463346FEF7CAFC0022284BFEF728FA7E
:1022100007462A46334600E064E00391104619461B
:10222000FEF7BCFC3A46039BFEF7B8FC07460322C8
:1022300009915207244B28463146FEF7AFFC07911F
:102240000C90224A204B38460999FEF7A7FC074616
:1022500001911F4A1F4B28463146FEF79FFC3A4624
:10226000019BFEF7F2F907460B46024609910799D2
:102270000C98FEF7DDF900250E462846079B0C9AC0
:10228000FEF7E3F93A4627E0FFFF1F00FFFF0F00CC
:102290000000F03F0000E0FF0000F07F000040433E
:1022A00001FCFFFF0000F0BF361400000000E03F1B
:1022B0000000F0FF0000E0410000F043FFFFEF3FAF
:1022C000555555555555D53F4715F73FFE822B655A
:1022D00044DF5DF80BAE543E099BFEF7C1F90246A0
:1022E0000B4652E1012500202D05A94207DA3522CF
:1022F00030463946FEF7CEFE06463420C0430A1566
:102300001218FE48101803900803FD49000B014302
:102310000F46FC49884201DC002003E0FA4988426C
:1023200002DA0120119005E0002011900398401C72
:102330007F1B039011980597C200F4480F927844D0
:10234000801843680268394630460D930292FEF7C2
:102350007CF907910C9030460D9B029A0599FEF787
:1023600067F902460B460020E549FEF791F909910D
:102370000490079B0C9AFEF711FC1290002010901D
:10238000E3480D46784400680E9001217810490713
:10239000084311990D9B890440180121C90447186D
:1023A0003946029A0E98FEF750F93246059BFEF721
:1023B00057F902460B4629461098FEF7EFFB0646F2
:1023C00002913B4629460E9A1098FEF7E7FB079BC1
:1023D0000C9AFEF745F93246029BFEF736F9099B47
:1023E000049AFEF7DBFB0591129A0A902B461046E1
:1023F0001946FEF7D3FB06460246C6480F460B4673
:1024000006217844FFF7B8F932463B460091049024
:1024100010461946FEF7C2FB009B049AFEF7BEFB6E
:1024200006460F462B461946129A1098FEF700F9F9
:10243000059B0A9AFEF7B2FB32463B46FEF7F8F8D8
:10244000109A079104902B4610461946FEF7A6FBFA
:10245000B14E0022334609910290FEF7E9F8079B3E
:10246000049AFEF7E5F8002007460246334600913D
:10247000FEF7EBF8099B029AFEF7E7F8079B049A30
:10248000FEF7EEF806460D913A462946009B109855
:10249000FEF784FB07910C902B463046129A0D995B
:1024A000FEF77CFB05460E463A46009B05990A98C6
:1024B000FEF774FB33462A46FEF7BAF802460B468F
:1024C0000746099107990C98FEF7B2F800250E46C9
:1024D0002846079B0C9AFEF7B8F83A46099BFEF788
:1024E000BFF807460722099152078C4B3146284610
:1024F000FEF754FB07910090894A884B38460999AA
:10250000FEF74CFB07460191864A874B3146284629
:10251000FEF744FB3A46019BFEF78AF8834B7B4467
:102520000F9A9B181A685B68FEF782F8029009916F
:102530000398FEF728FB05910490099B029A0799DE
:102540000098FEF775F87A4B7B440F9A9B181A682F
:102550005B6817460393FEF76BF8059B049AFEF73A
:1025600067F80E462846059B049AFEF76EF83A4631
:10257000039BFEF76AF8079B009AFEF766F8099B33
:10258000029AFEF76DF802460B46199900200C904E
:102590000F461898FEF702FB029104903B460C9AF6
:1025A00019991898FEF751F82A463346FEF7F6FABD
:1025B000029B049AFEF73CF809910E902A46334696
:1025C00039460C98FEF7EAFA06460F46099B0E9A22
:1025D000FEF72EF8574A0D46914220DB5242AA18C8
:1025E000024310D132463B46FEF72FF80490039188
:1025F000514A524B09990E98FEF71AF8039B049A18
:1026000000F09CFB1ED20220FEF7F6FCFFF720F93B
:1026100049004908E20FD20711431BB0F0BD6A0020
:10262000474B52089A420DD3464AAA18024300D09B
:10263000CBE532463B46FEF708F8099B0E9A00F0C0
:102640007DFBF5D96800002340082C490393020D57
:102650003D4B5218984223DD01200005521CD0400A
:1026600042195000400D4018384979440968134612
:102670008C463749C1408B4312030121120B0905D7
:1026800051181422101AC1400391002D01DA48425A
:102690000390624630463946FDF7D7FF06460F469F
:1026A00032463B4609990E98FDF7C2FF00252A469F
:1026B000284B28460591FEF771FA07910C90264A9F
:1026C000264B28460599FEF769FA0091029032469A
:1026D0003B4628460599FDF7B8FF099B0E9AFDF782
:1026E000BFFF1F4A1F4BFEF759FA009B029AFDF7E6
:1026F0009FFF07460B460246099135E001FCFFFFAC
:102700000000F03F8E9803007AB60B0046100000E0
:1027100088100000B20F00000000084009C7EE3F1B
:10272000FD033ADCF5015B14E02F3EBE860E00008F
:102730004C0E000000009040FE822B654715973C30
:1027400000CC904000346F3F0000E03FA20D00003D
:10275000FFFF0F00432EE63F396CA80C615C20BEE2
:10276000EF39FAFE422EE63F07990C98FDF760FF1D
:1027700005460E46079B0C9AFDF767FF3A46099BF4
:10278000FDF76EFF09912A4633460E901046194612
:10279000FEF704FA074602462F480B46059105212D
:1027A0007844FEF7E9FF3A46059BFEF7F7F92A461B
:1027B0003346FDF755FF0746019128463146099BF0
:1027C0000E9AFEF7EBF9099B0E9AFDF731FF0123F4
:1027D00004910C9000229B0738460199FDF735FFC4
:1027E00005910E903A4628463146019BFEF7D6F9F0
:1027F000059B0E9AFDF74CFF049B0C9AFDF725FFF5
:102800002A463346FDF721FF0022144BFDF728FF2F
:10281000064603980D46000541190915002912DCEA
:1028200030462946039AFEF735FCFEF753FF04288D
:1028300001D1FFF717F830462946039AFEF72AFC24
:10284000064601E004E029180B4632462146089866
:10285000FEF7A4F91BB0F0BD440C00000000F03FEF
:1028600030B500BF4C4B9B690124E4032340002B8F
:10287000F8D1494B5B68494C2340474C6360234681
:102880005B68474C2343444C636000BF424B9B69E9
:1028900040242340002BF9D100BF3F4B9B69DB074D
:1028A000DB0F002BF9D03C4B986200BF3A4B9B6981
:1028B00040242340002BF9D100BF374B9B69DB0735
:1028C000DB0F002BF9D0344B5B680124A4032343B6
:1028D000314C636000BF304B9B6920242340002BA8
:1028E000F9D02D4BDB6923432B4CE36100BF2A4B0E
:1028F0009B690124E4032340002BF8D1264B5B683D
:10290000284C2340244C636023465B6824152343F2
:10291000214C636023465C681304234D2B431C4306
:102920001D4B5C6000BF1C4B9B6940242340002B67
:10293000F9D10AE000BF184B9B6904242340002B07
:10294000F9D0154B5B6A0B70491C1346541EE2B25A
:10295000002BEFDC00BF104B9B69DB07DB0F002B6C
:10296000F9D00D4B5B680124A40323430A4C636038
:1029700000BF094B9B6920242340002BF9D0064B54
:10298000DB692343044CE36123465B682124A402F2
:10299000A343014C636030BD0054004000F800FFC9
:1029A000EE20FF0000FC00FFEE20000010B5024604
:1029B00000BF4E4989690123DB0319400029F8D182
:1029C0004A4949684A4B1940484B59601946496879
:1029D000484B1943454B596000BF4449896940231E
:1029E00019400029F9D100BF40498969C907C90FB9
:1029F0000029F9D03D498A6200BF3C4989694023DA
:102A000019400029F9D100BF38498969C907C90FA0
:102A10000029F9D03549496801239B031943334BF9
:102A2000596000BF31498969202319400029F9D034
:102A30002E49C96919432D4BD96100BF2B498969BA
:102A40000123DB0319400029F8D1284949682A4BA2
:102A50001940264B5960194649681B151943234BE9
:102A6000596019464968254B1943204B596000BFEE
:102A70001E498969402319400029F9D1002002210B
:102A80000FE000BF194B9B6904242340002BF9D0B1
:102A9000164B5B6A4C1EE400A3409BB218434B1ECE
:102AA000D9B20029EDDC00BF10498969C907C90FF7
:102AB0000029F9D00D49496801239B0319430B4BA9
:102AC000596000BF09498969202319400029F9D0BC
:102AD0000649C9691943054BD9611946496821233B
:102AE0009B029943014B596010BD00000054004007
:102AF00000F800FFEE20800000FC00FFEE20020046
:102B0000014600BF484A92690123DB031A40002AAC
:102B1000F8D1454A5268454B1A40434B5A601A4611
:102B20005268434B1A43404B5A6000BF3E4A926979
:102B300040231A40002AF9D100BF3B4A9269D207CC
:102B4000D20F002AF9D0384A916200BF364A926902
:102B500040231A40002AF9D100BF334A9269D207B4
:102B6000D20F002AF9D0304A526801239B031A433E
:102B70002D4B5A6000BF2C4A926920231A40002A2C
:102B8000F9D0294AD2691A43274BDA6100BF264A95
:102B900092690123DB031A40002AF8D1224A5268C5
:102BA000244B1A40204B5A601A4652681B151A4390
:102BB0001D4B5A601A4652681F4B1A431A4B5A60F3
:102BC00000BF194A926940231A40002AF9D100BF78
:102BD000154A926904231A40002AF9D0124A526A0F
:102BE000D0B200BF104A9269D207D20F002AF9D0A2
:102BF0000D4A526801239B031A430B4B5A6000BFD6
:102C0000094A926920231A40002AF9D0064AD2695B
:102C10001A43054BDA611A46526821239B029A43F4
:102C2000014B5A60704700000054004000F800FF5C
:102C3000EE20800000FC00FFEE200100F8B5064603
:102C40000C46FEF77DFA051E0F4600D00120014319
:102C500049000B484908411AC90F0DD0002E01D078
:102C6000012100E000210C4361004908401AC00F17
:102C700002D10120FEF7C0F928463946F8BD000010
:102C80000000F07F00BF2A4A92690123DB031A404B
:102C9000002AF8D1264A5268264B1A40244B5A6023
:102CA0001A465268244B1A43214B5A6000BF204AEF
:102CB000926940231A40002AF9D100BF1C4A926948
:102CC000D207D20F002AF9D0194A906200BF184AE1
:102CD000926940231A40002AF9D100BF144A926930
:102CE000D207D20F002AF9D0114A916200BF104AD0
:102CF000926940231A40002AF9D100BF0C4A926918
:102D0000D207D20F002AF9D0094A526801239B0347
:102D10001A43074B5A6000BF054A926920231A40A4
:102D2000002AF9D0024AD2691A43014BDA6170478E
:102D30000054004000F800FFEE20800070B501252F
:102D40001C002D050C4310D4EC4206D4AC420AD42E
:102D50008B4200D070BD824270BDEB4217D4E94275
:102D600015D48B4270BD9B4270BDEC4206D5AC427F
:102D7000F9D5994200D070BD904270BD6D005C00E5
:102D8000EC4204D24C00EC4201D2994270BD0FB427
:102D9000034C0CBC03BC30B4FEF734F930BC70BD3E
:102DA0001900160470B5420064414B005C41120EDC
:102DB00039D01B0E38D0FF2A3CD0FF2B3AD040022E
:102DC0004902400A490A060045184E43000A090A0A
:102DD000D2184843ED017F3A0104731A4019190CC7
:102DE0004318990F04D001215B0849075B1A521C54
:102DF000D80904D3401CF50301D19D0607D0FF2A52
:102E000008D2D50506D0E4072043401970BD01253E
:102E1000A843F4E7002A01DCE00770BD2402FF208C
:102E20002043C00570BD1B0EFF2A03D0FF2B01D02D
:102E3000E00770BDFF2645003606B54206D84D00B6
:102E4000B54203D8D218FF2A00D0E7E7004870BD8A
:102E50000000C07FA83FD30040A1C8DA12817FA440
:102E6000A6D5808D14AF000000000000002F0000E8
:102E70000007000700147F147F14242A7F2A12C43D
:102E8000C810264636495522500005030000001C94
:102E90002241000041221C0014083E081408083E8C
:102EA0000808000050300010101010100060600082
:102EB0000020100804023E5149453E00427F400078
:102EC00042615149462141454B311814127F102768
:102ED000454545393C4A49493001710905033649A0
:102EE000494936064949291E003636000000563643
:102EF0000000081422410014141414140041221478
:102F0000080201510906324959513E7E1111117EC4
:102F10007F494949363E414141227F4141221C7F40
:102F2000494949417F090909013E4149497A7F08D8
:102F300008087F00417F41002040413F017F081485
:102F400022417F404040407F020C027F7F040810F6
:102F50007F3E4141413E7F090909063E4151215EC4
:102F60007F09192946464949493101017F01013F3D
:102F70004040403F1F2040201F3F4038403F6314E7
:102F800008146307087008076151494543007F41F1
:102F90004100552A552A550041417F000402010293
:102FA0000440404040400001020400205454547842
:102FB0007F484444383844444420384444487F38A7
:102FC00054545418087E0901020C5252523E7F0894
:102FD00004047800447D40002040443D007F1028D8
:102FE000440000417F40007C041804787C080404FD
:102FF0007838444444387C14141408081414187C99
:103000007C080404084854545420043F4440203CA5
:103010004040207C1C2040201C3C4030403C442848
:103020001028440C5050503C4464544C4400083622
:10303000410000007F00000041360800040204083F
:10304000040000000000000000000000000000007C
:103050000000000000000000000000000000000070
:103060000000000000000000000000000000000060
:103070000000000000000000000000000000000050
:103080000000000000000000000000000000000040
:103090000000000000000000000000000000000030
:1030A0000000000000000000000000000000000020
:1030B0000000000000000000000000000000000010
:1030C0000000000000000000000000000000000000
:1030D00000000000000000000000000000000000F0
:1030E00000000000000000000000000000000000E0
:1030F00000000000000000000000000000000000D0
:103100000000000000003600000000000000000089
:1031100000000000000000003E4949492200000074
:10312000000000000000000000000000000000009F
:103130000044457C45440000000000000000000001
:1031400000417F410000447D40000000000000007D
:10315000000000000000000000000000000000006F
:103160000000000000000000385444280000000067
:10317000000000000000000000000000000000004F
:10318000004A487A40407E1111117E7F49494931F9
:103190007F494949367F01010103603E21217F7F3C
:1031A0004949494163147F146322494949367F10D4
:1031B00008047F7F1009047F7F081422417C0201EC
:1031C000017F7F020C027F7F0808087F3E4141415A
:1031D0003E7F0101017F7F090909063E41414122ED
:1031E00001017F0101074848483F1C227F221C63E0
:1031F000140814633F20203F60070808087F7F40C1
:103200007F407F3F203F207F017F4848307F4848F4
:10321000307F7F48484830224949493E7F083E4137
:103220003E462919097F2054545478785454542028
:103230007C545454287C04040400603824386038DA
:10324000545454186C107C106C28445454283C403E
:1032500040207C3C4042207C7C10102844601008B8
:10326000047C7C0810087C7C1010107C384444449A
:10327000387C0404047C7C1414140838444444202E
:1032800004047C04040C5050503C18247C24184442
:10329000281028443C20203C600C1010107C7C40FE
:1032A0007C407C3C203C207C047C4848307C48307E
:1032B000007C7C4848483028445454387C103844BA
:1032C00038582424247C80807F7E7D7C7B7A7978AA
:1032D000777676757473727171706F6E6E6D6C6CDB
:1032E0006B6A6A696868676666656464636362617D
:1032F0006160605F5F5E5E5D5D5C5C5B5B5A5A59FE
:103300005958585757565655555554545353525269
:103310005251515050504F4F4F4E4E4D4D4D4C4CC1
:103320004C4B4B4B4A4A4A4949494848484747470A
:103330004746464645454544444444434343434247
:103340004242424141418182838485868788898BBC
:103350008C8D8E8F919293959697999A9C9D9FA014
:10336000A2A3A5A7A8AAACAEB0B2B3B5B7B9BCBE6C
:10337000C0C2C5C7C9CCCED1D4D7D9DCDFE2E6E91B
:10338000ECF0F3F7FAFE0000000000000000F03F50
:10339000000000000000F83F0000000000000000F6
:1033A0000000004003B8E23F000000000000000001
:1033B00006D0CF43EBFD4C3E033333333333E33F8F
:1033C000FFAB6FDBB66DDB3F4D268F515555D53FBB
:1033D00001411DA96074D13F65DBC9934A86CD3F89
:1033E000EF4E454A287ECA3F3E5555555555C53F77
:1033F00093BDBE166CC166BF2CDE25AF6A56113F69
:10340000F16BD2C541BDBBBED0A4BE726937663E6A
:103410000000000000000000383400080000002018
:1034200010000000040100084834000810000020CB
:1034300060060000200100080000000000000000FD
:08344000000000000000000084
:040000050800016589
:00000001FF
